:0E000000004000200900000000F074F8FEE748
:1000100080B500AFC046BD4680BD80B500AF044B83
:1000200001221A60034B01221A60C046BD4680BD02
:10003000002000400820004080B584B000AF786008
:1000400014E07B68013B7B600C4BFB60FB68180095
:100050000138C046C046C046C046C046C046C0463D
:10006000C046C046C046C046C046F1D17B68002BA2
:10007000E7D1C046BD4604B080BDC046E7030000DE
:1000800080B582B000AF78600EE07B681A780A4BCA
:100090001A60C046094B1B68012BFBD1074B00229D
:1000A0001A607B6801337B607B681B78002BECD186
:1000B000C046BD4602B080BD1C2500401C2100404A
:1000C00080B582B000AFC046084B1B68012BFBD146
:1000D000064B00221A60064B1A68FB1D1A70FB1DA6
:1000E0001B781800BD4602B080BDC0460821004004
:1000F0001825004080B59AB000AFC046BD461AB082
:0401000080BDC046B8
:100104001C2500401C210040182500400821004007
:10011400082000400C200040002000400420004043
:0400000300000009F0
:00000001FF
