:1000000000400020C1000000000000005D01000071
:1000100000000000000000000000000000000000E0
:1000200000000000000000000000000000000000D0
:1000300000000000000000000000000000000000C0
:1000400000000000000000000000000000000000B0
:1000500000000000000000000000000000000000A0
:100060000000000000000000000000000000000090
:100070000000000000000000000000000000000080
:100080000000000000000000000000000000000070
:100090000000000000000000000000000000000060
:1000A0000000000000000000000000000000000050
:1000B0000000000000000000000000000000000040
:1000C00000E8000043E000E8008040E000F80000A5
:1000D0003DE000F800803AE000F0000037E0F0F783
:1000E00000A034E080F3058800E030E0EFF3058005
:1000F00000E02CE000F000F800E028E0BFF35F8FA4
:1001000000E024E0BFF34F8F00E020E0BFF36F8FEB
:1001100000E01CE00FA002214258C04617E00DA0ED
:100120000121425AC04612E00AA00121425EC046A7
:100130000DE008A0022100224250C04607E005A0C1
:10014000012100224252C04601E001200AE00020C5
:1001500008E0C04634127856769832540698063035
:10016000069070470021012800D101491820ABBE3C
:040170002600020063
:04000003000000C138
:00000001FF
